{
  "contractName": "Adoption",
  "abi": [
    {
      "anonymous": false,
      "inputs": [
        {
          "indexed": true,
          "internalType": "address",
          "name": "byId",
          "type": "address"
        },
        {
          "indexed": false,
          "internalType": "uint16",
          "name": "pokenId",
          "type": "uint16"
        }
      ],
      "name": "Buying",
      "type": "event"
    },
    {
      "constant": true,
      "inputs": [
        {
          "internalType": "address",
          "name": "",
          "type": "address"
        },
        {
          "internalType": "uint256",
          "name": "",
          "type": "uint256"
        }
      ],
      "name": "defenders",
      "outputs": [
        {
          "internalType": "uint256",
          "name": "",
          "type": "uint256"
        }
      ],
      "payable": false,
      "stateMutability": "view",
      "type": "function"
    },
    {
      "constant": true,
      "inputs": [
        {
          "internalType": "uint256",
          "name": "",
          "type": "uint256"
        }
      ],
      "name": "owners",
      "outputs": [
        {
          "internalType": "address",
          "name": "",
          "type": "address"
        }
      ],
      "payable": false,
      "stateMutability": "view",
      "type": "function"
    },
    {
      "constant": true,
      "inputs": [],
      "name": "getOwners",
      "outputs": [
        {
          "internalType": "address[809]",
          "name": "",
          "type": "address[809]"
        }
      ],
      "payable": false,
      "stateMutability": "view",
      "type": "function"
    },
    {
      "constant": true,
      "inputs": [
        {
          "internalType": "address",
          "name": "_owner",
          "type": "address"
        }
      ],
      "name": "getDefender",
      "outputs": [
        {
          "internalType": "uint256[3]",
          "name": "",
          "type": "uint256[3]"
        }
      ],
      "payable": false,
      "stateMutability": "view",
      "type": "function"
    },
    {
      "constant": false,
      "inputs": [
        {
          "internalType": "uint16",
          "name": "_pokemonId",
          "type": "uint16"
        },
        {
          "internalType": "uint256",
          "name": "_amount",
          "type": "uint256"
        }
      ],
      "name": "catchPokemon",
      "outputs": [],
      "payable": true,
      "stateMutability": "payable",
      "type": "function"
    },
    {
      "constant": false,
      "inputs": [
        {
          "internalType": "address",
          "name": "_owner",
          "type": "address"
        },
        {
          "internalType": "uint16",
          "name": "_index",
          "type": "uint16"
        },
        {
          "internalType": "uint16",
          "name": "_pokemonId",
          "type": "uint16"
        }
      ],
      "name": "addDefender",
      "outputs": [],
      "payable": false,
      "stateMutability": "nonpayable",
      "type": "function"
    },
    {
      "constant": false,
      "inputs": [
        {
          "internalType": "address",
          "name": "_owner",
          "type": "address"
        },
        {
          "internalType": "uint16",
          "name": "_index",
          "type": "uint16"
        }
      ],
      "name": "removeDefender",
      "outputs": [],
      "payable": false,
      "stateMutability": "nonpayable",
      "type": "function"
    }
  ],
  "bytecode": "0x608060405261032961032a60006101000a81548161ffff021916908361ffff16021790555034801561003057600080fd5b506109d4806100406000396000f3fe6080604052600436106100705760003560e01c806381898fa91161004e57806381898fa9146101be578063a0e67e2b1461024b578063b9573b0f1461029f578063db4792b0146102db57610070565b8063025e7c271461007557806370a66fbb146100f057806374c08fb51461015f575b600080fd5b34801561008157600080fd5b506100ae6004803603602081101561009857600080fd5b8101908080359060200190929190505050610348565b604051808273ffffffffffffffffffffffffffffffffffffffff1673ffffffffffffffffffffffffffffffffffffffff16815260200191505060405180910390f35b3480156100fc57600080fd5b506101496004803603604081101561011357600080fd5b81019080803573ffffffffffffffffffffffffffffffffffffffff1690602001909291908035906020019092919050505061037c565b6040518082815260200191505060405180910390f35b34801561016b57600080fd5b506101bc6004803603604081101561018257600080fd5b81019080803573ffffffffffffffffffffffffffffffffffffffff169060200190929190803561ffff1690602001909291905050506103a2565b005b3480156101ca57600080fd5b5061020d600480360360208110156101e157600080fd5b81019080803573ffffffffffffffffffffffffffffffffffffffff16906020019092919050505061041f565b6040518082600360200280838360005b8381101561023857808201518184015260208101905061021d565b5050505090500191505060405180910390f35b34801561025757600080fd5b506102606104aa565b604051808261032960200280838360005b8381101561028c578082015181840152602081019050610271565b5050505090500191505060405180910390f35b6102d9600480360360408110156102b557600080fd5b81019080803561ffff1690602001909291908035906020019092919050505061052d565b005b3480156102e757600080fd5b50610346600480360360608110156102fe57600080fd5b81019080803573ffffffffffffffffffffffffffffffffffffffff169060200190929190803561ffff169060200190929190803561ffff16906020019092919050505061075e565b005b600081610329811061035657fe5b016000915054906101000a900473ffffffffffffffffffffffffffffffffffffffff1681565b610329602052816000526040600020816003811061039657fe5b01600091509150505481565b60008161ffff16101580156103bc575060028161ffff1611155b6103c557600080fd5b600061032960008473ffffffffffffffffffffffffffffffffffffffff1673ffffffffffffffffffffffffffffffffffffffff1681526020019081526020016000208261ffff166003811061041657fe5b01819055505050565b610427610959565b61032960008373ffffffffffffffffffffffffffffffffffffffff1673ffffffffffffffffffffffffffffffffffffffff16815260200190815260200160002060038060200260405190810160405280929190826003801561049e576020028201915b81548152602001906001019080831161048a575b50505050509050919050565b6104b261097b565b60006103298060200260405190810160405280929190826103298015610523576020028201915b8160009054906101000a900473ffffffffffffffffffffffffffffffffffffffff1673ffffffffffffffffffffffffffffffffffffffff16815260200190600101908083116104d9575b5050505050905090565b8034146105a2576040517f08c379a00000000000000000000000000000000000000000000000000000000081526004018080602001828103825260208152602001807f4e65656420746f2073656e6420657861637420616d6f756e74206f662077656981525060200191505060405180910390fd5b3373ffffffffffffffffffffffffffffffffffffffff1660008361ffff1661032981106105cb57fe5b0160009054906101000a900473ffffffffffffffffffffffffffffffffffffffff1673ffffffffffffffffffffffffffffffffffffffff16141561060e57600080fd5b600073ffffffffffffffffffffffffffffffffffffffff1660008361ffff16610329811061063857fe5b0160009054906101000a900473ffffffffffffffffffffffffffffffffffffffff1673ffffffffffffffffffffffffffffffffffffffff16141561067b57600080fd5b60008261ffff16101580156106a9575061032a60009054906101000a900461ffff1661ffff168261ffff1611155b6106b257600080fd5b3360008361ffff1661032981106106c557fe5b0160006101000a81548173ffffffffffffffffffffffffffffffffffffffff021916908373ffffffffffffffffffffffffffffffffffffffff1602179055503373ffffffffffffffffffffffffffffffffffffffff167f9f8f666c0909c6b82aa71ed220806a6ce64ee07cb42a8e6eb16a82480b1e6d0e83604051808261ffff1661ffff16815260200191505060405180910390a25050565b60008261ffff1610158015610778575060028261ffff1611155b61078157600080fd5b3373ffffffffffffffffffffffffffffffffffffffff1660008261ffff1661032981106107aa57fe5b0160009054906101000a900473ffffffffffffffffffffffffffffffffffffffff1673ffffffffffffffffffffffffffffffffffffffff16146107ec57600080fd5b8273ffffffffffffffffffffffffffffffffffffffff1660008261ffff16610329811061081557fe5b0160009054906101000a900473ffffffffffffffffffffffffffffffffffffffff1673ffffffffffffffffffffffffffffffffffffffff161461085757600080fd5b600073ffffffffffffffffffffffffffffffffffffffff1660008261ffff16610329811061088157fe5b0160009054906101000a900473ffffffffffffffffffffffffffffffffffffffff1673ffffffffffffffffffffffffffffffffffffffff1614156108c457600080fd5b60008161ffff16101580156108f2575061032a60009054906101000a900461ffff1661ffff168161ffff1611155b6108fb57600080fd5b8061ffff1661032960008573ffffffffffffffffffffffffffffffffffffffff1673ffffffffffffffffffffffffffffffffffffffff1681526020019081526020016000208361ffff166003811061094f57fe5b0181905550505050565b6040518060600160405280600390602082028038833980820191505090505090565b6040518061652001604052806103299060208202803883398082019150509050509056fea265627a7a72315820957a7b8b0f7fbd34e0a4d2ea4e12a2f48afbdefb0661b196d6fee8b4fc7cbb2864736f6c63430005100032",
  "source": "// SPDX-License-Identifier: MIT\npragma solidity ^0.5.16;\n\ncontract Adoption {\n    address[809] public owners;\n\n    mapping(address => uint256[3]) public defenders;\n    uint16 pokenmonAmount = 809;\n\n    event Buying(address indexed byId, uint16 pokenId);\n\n    function getOwners() public view returns (address[809] memory) {\n        return owners;\n    }\n\n    function getDefender(address _owner)\n        public\n        view\n        returns (uint256[3] memory)\n    {\n        return defenders[_owner];\n    }\n\n    function catchPokemon(uint16 _pokemonId, uint256 _amount) public payable {\n        require(msg.value == _amount, \"Need to send exact amount of wei\");\n        require(owners[_pokemonId] != msg.sender);\n        require(owners[_pokemonId] != address(0x0));\n        require(_pokemonId >= 0 && _pokemonId <= pokenmonAmount);\n\n        owners[_pokemonId] = msg.sender;\n        emit Buying(msg.sender, _pokemonId);\n    }\n\n    function addDefender(\n        address _owner,\n        uint16 _index,\n        uint16 _pokemonId\n    ) public {\n        require(_index >= 0 && _index <= 2);\n        require(owners[_pokemonId] == msg.sender);\n        require(owners[_pokemonId] == _owner);\n        require(owners[_pokemonId] != address(0x0));\n        require(_pokemonId >= 0 && _pokemonId <= pokenmonAmount);\n\n        defenders[_owner][_index] = _pokemonId;\n    }\n\n    function removeDefender(address _owner, uint16 _index) public {\n        require(_index >= 0 && _index <= 2);\n        defenders[_owner][_index] = 0;\n    }\n}\n",
  "sourcePath": "/Users/atreus/work/pet-shop-ultimate/contracts/Adoption.sol",
  "compiler": {
    "name": "solc",
    "version": "0.5.16+commit.9c3226ce.Emscripten.clang"
  },
  "schemaVersion": "3.4.6",
  "updatedAt": "2022-04-26T07:39:01.227Z",
  "devdoc": {
    "methods": {}
  },
  "userdoc": {
    "methods": {}
  }
}