{
  "contractName": "Pokemon",
  "abi": [
    {
      "anonymous": false,
      "inputs": [
        {
          "indexed": true,
          "internalType": "address",
          "name": "byId",
          "type": "address"
        },
        {
          "indexed": false,
          "internalType": "uint256",
          "name": "pokenId",
          "type": "uint256"
        }
      ],
      "name": "Buying",
      "type": "event"
    },
    {
      "constant": true,
      "inputs": [
        {
          "internalType": "address",
          "name": "",
          "type": "address"
        },
        {
          "internalType": "uint256",
          "name": "",
          "type": "uint256"
        }
      ],
      "name": "defenders",
      "outputs": [
        {
          "internalType": "uint256",
          "name": "",
          "type": "uint256"
        }
      ],
      "payable": false,
      "stateMutability": "view",
      "type": "function"
    },
    {
      "constant": true,
      "inputs": [
        {
          "internalType": "uint256",
          "name": "",
          "type": "uint256"
        }
      ],
      "name": "owners",
      "outputs": [
        {
          "internalType": "address",
          "name": "",
          "type": "address"
        }
      ],
      "payable": false,
      "stateMutability": "view",
      "type": "function"
    },
    {
      "constant": true,
      "inputs": [],
      "name": "getOwners",
      "outputs": [
        {
          "internalType": "address[809]",
          "name": "",
          "type": "address[809]"
        }
      ],
      "payable": false,
      "stateMutability": "view",
      "type": "function"
    },
    {
      "constant": true,
      "inputs": [
        {
          "internalType": "address",
          "name": "_owner",
          "type": "address"
        }
      ],
      "name": "getDefender",
      "outputs": [
        {
          "internalType": "uint256[3]",
          "name": "",
          "type": "uint256[3]"
        }
      ],
      "payable": false,
      "stateMutability": "view",
      "type": "function"
    },
    {
      "constant": false,
      "inputs": [
        {
          "internalType": "uint256",
          "name": "_pokemonId",
          "type": "uint256"
        },
        {
          "internalType": "uint256",
          "name": "_amount",
          "type": "uint256"
        }
      ],
      "name": "catchPokemon",
      "outputs": [],
      "payable": true,
      "stateMutability": "payable",
      "type": "function"
    },
    {
      "constant": false,
      "inputs": [
        {
          "internalType": "address",
          "name": "_owner",
          "type": "address"
        },
        {
          "internalType": "uint256",
          "name": "_index",
          "type": "uint256"
        },
        {
          "internalType": "uint256",
          "name": "_pokemonId",
          "type": "uint256"
        }
      ],
      "name": "addDefender",
      "outputs": [],
      "payable": false,
      "stateMutability": "nonpayable",
      "type": "function"
    },
    {
      "constant": false,
      "inputs": [
        {
          "internalType": "address",
          "name": "_owner",
          "type": "address"
        },
        {
          "internalType": "uint256",
          "name": "_index",
          "type": "uint256"
        }
      ],
      "name": "removeDefender",
      "outputs": [],
      "payable": false,
      "stateMutability": "nonpayable",
      "type": "function"
    }
  ],
  "bytecode": "0x608060405261032961032a5534801561001757600080fd5b50610965806100276000396000f3fe6080604052600436106100705760003560e01c806381898fa91161004e57806381898fa9146101ba5780638bdbf25314610247578063a0e67e2b1461027f578063cec0b80e146102d357610070565b8063025e7c271461007557806367ce394a146100f057806370a66fbb1461014b575b600080fd5b34801561008157600080fd5b506100ae6004803603602081101561009857600080fd5b8101908080359060200190929190505050610338565b604051808273ffffffffffffffffffffffffffffffffffffffff1673ffffffffffffffffffffffffffffffffffffffff16815260200191505060405180910390f35b3480156100fc57600080fd5b506101496004803603604081101561011357600080fd5b81019080803573ffffffffffffffffffffffffffffffffffffffff1690602001909291908035906020019092919050505061036c565b005b34801561015757600080fd5b506101a46004803603604081101561016e57600080fd5b81019080803573ffffffffffffffffffffffffffffffffffffffff169060200190929190803590602001909291905050506103dd565b6040518082815260200191505060405180910390f35b3480156101c657600080fd5b50610209600480360360208110156101dd57600080fd5b81019080803573ffffffffffffffffffffffffffffffffffffffff169060200190929190505050610403565b6040518082600360200280838360005b83811015610234578082015181840152602081019050610219565b5050505090500191505060405180910390f35b61027d6004803603604081101561025d57600080fd5b81019080803590602001909291908035906020019092919050505061048e565b005b34801561028b57600080fd5b50610294610699565b604051808261032960200280838360005b838110156102c05780820151818401526020810190506102a5565b5050505090500191505060405180910390f35b3480156102df57600080fd5b50610336600480360360608110156102f657600080fd5b81019080803573ffffffffffffffffffffffffffffffffffffffff169060200190929190803590602001909291908035906020019092919050505061071c565b005b600081610329811061034657fe5b016000915054906101000a900473ffffffffffffffffffffffffffffffffffffffff1681565b6000811015801561037e575060028111155b61038757600080fd5b600061032960008473ffffffffffffffffffffffffffffffffffffffff1673ffffffffffffffffffffffffffffffffffffffff16815260200190815260200160002082600381106103d457fe5b01819055505050565b61032960205281600052604060002081600381106103f757fe5b01600091509150505481565b61040b6108ea565b61032960008373ffffffffffffffffffffffffffffffffffffffff1673ffffffffffffffffffffffffffffffffffffffff168152602001908152602001600020600380602002604051908101604052809291908260038015610482576020028201915b81548152602001906001019080831161046e575b50505050509050919050565b600060018303905081341461050b576040517f08c379a00000000000000000000000000000000000000000000000000000000081526004018080602001828103825260208152602001807f4e65656420746f2073656e6420657861637420616d6f756e74206f662077656981525060200191505060405180910390fd5b3373ffffffffffffffffffffffffffffffffffffffff16600082610329811061053057fe5b0160009054906101000a900473ffffffffffffffffffffffffffffffffffffffff1673ffffffffffffffffffffffffffffffffffffffff16141561057357600080fd5b600073ffffffffffffffffffffffffffffffffffffffff16600082610329811061059957fe5b0160009054906101000a900473ffffffffffffffffffffffffffffffffffffffff1673ffffffffffffffffffffffffffffffffffffffff16146105db57600080fd5b600183101580156105ef575061032a548311155b6105f857600080fd5b33600082610329811061060757fe5b0160006101000a81548173ffffffffffffffffffffffffffffffffffffffff021916908373ffffffffffffffffffffffffffffffffffffffff1602179055503373ffffffffffffffffffffffffffffffffffffffff167f840df612bc9052dfa7ac2e14fc52368ca7749154d9132b7601f59d329f787fd6826040518082815260200191505060405180910390a2505050565b6106a161090c565b60006103298060200260405190810160405280929190826103298015610712576020028201915b8160009054906101000a900473ffffffffffffffffffffffffffffffffffffffff1673ffffffffffffffffffffffffffffffffffffffff16815260200190600101908083116106c8575b5050505050905090565b600060018203905060008310158015610736575060028311155b61073f57600080fd5b3373ffffffffffffffffffffffffffffffffffffffff16600082610329811061076457fe5b0160009054906101000a900473ffffffffffffffffffffffffffffffffffffffff1673ffffffffffffffffffffffffffffffffffffffff16146107a657600080fd5b8373ffffffffffffffffffffffffffffffffffffffff1660008261032981106107cb57fe5b0160009054906101000a900473ffffffffffffffffffffffffffffffffffffffff1673ffffffffffffffffffffffffffffffffffffffff161461080d57600080fd5b600073ffffffffffffffffffffffffffffffffffffffff16600082610329811061083357fe5b0160009054906101000a900473ffffffffffffffffffffffffffffffffffffffff1673ffffffffffffffffffffffffffffffffffffffff16141561087657600080fd5b6000811015801561088a575061032a548111155b61089357600080fd5b8061032960008673ffffffffffffffffffffffffffffffffffffffff1673ffffffffffffffffffffffffffffffffffffffff16815260200190815260200160002084600381106108df57fe5b018190555050505050565b6040518060600160405280600390602082028038833980820191505090505090565b6040518061652001604052806103299060208202803883398082019150509050509056fea265627a7a72315820917f0dc711a2d9ea6768dc2258207f19617771bd83bcd74b254c09d1fad831f164736f6c63430005100032",
  "source": "// SPDX-License-Identifier: MIT\npragma solidity ^0.5.16;\n\ncontract Pokemon {\n    address[809] public owners;\n\n    mapping(address => uint256[3]) public defenders;\n    uint256 pokemonAmount = 809;\n\n    event Buying(address indexed byId, uint256 pokenId);\n\n    function getOwners() public view returns (address[809] memory) {\n        return owners;\n    }\n\n    function getDefender(address _owner)\n        public\n        view\n        returns (uint256[3] memory)\n    {\n        return defenders[_owner];\n    }\n\n    // function catchPokemon(uint256 _pokemonId, uint256 _amount) public payable {\n    function catchPokemon(uint256 _pokemonId, uint256 _amount) public payable {\n        uint256 _pokeId = _pokemonId - 1;\n        require(msg.value == _amount, \"Need to send exact amount of wei\");\n        require(owners[_pokeId] != msg.sender);\n        require(owners[_pokeId] == address(0x0));\n        require(_pokemonId >= 1 && _pokemonId <= pokemonAmount);\n\n        owners[_pokeId] = msg.sender;\n        emit Buying(msg.sender, _pokeId);\n    }\n\n    function addDefender(\n        address _owner,\n        uint256 _index,\n        uint256 _pokemonId\n    ) public {\n        uint256 _pokeId = _pokemonId - 1;\n        require(_index >= 0 && _index <= 2);\n        require(owners[_pokeId] == msg.sender);\n        require(owners[_pokeId] == _owner);\n        require(owners[_pokeId] != address(0x0));\n        require(_pokeId >= 0 && _pokeId <= pokemonAmount);\n\n        defenders[_owner][_index] = _pokeId;\n    }\n\n    function removeDefender(address _owner, uint256 _index) public {\n        require(_index >= 0 && _index <= 2);\n        defenders[_owner][_index] = 0;\n    }\n}\n",
  "sourcePath": "/Users/g721945/Main/cpe-course/CPE494-Blockchain/pet-shop-ultimate/contracts/Pokemon.sol",
  "compiler": {
    "name": "solc",
    "version": "0.5.16+commit.9c3226ce.Emscripten.clang"
  },
  "schemaVersion": "3.4.7",
  "updatedAt": "2022-04-26T17:54:08.726Z",
  "networkType": "ethereum",
  "devdoc": {
    "methods": {}
  },
  "userdoc": {
    "methods": {}
  }
}